S01E00004156522041544D4547412033323850204B45595041442E7372656363
S11300000C9498000C94A2000C94A2000C94A200EE
S11300100C94A2000C94A2000C94A2000C94A200D4
S11300200C94A2000C94A2000C94A2000C94A200C4
S11300300C94A2000C94A2000C94A2000C94A200B4
S11300400C94A2000C94A2000C94A2000C94A200A4
S11300500C94A2000C94A2000C94A2000C94A20094
S11300600C94A2000C94A200F6000601EA00DE0043
S11300700601060106010601060106010601060144
S11300800601060106010601060106010601060134
S11300900601060106010601060106010601060124
S11300A00601060106010601060106010601060114
S11300B00601060106010601060106010601060104
S11300C006010601060106010601060106010601F4
S11300D006010601060106010601060106010601E4
S11300E00201060106010601FA000601EE00E20023
S11300F006010601060106010601060106010601C4
S113010006010601060106010601060106010601B3
S113011006010601060106010601060106010601A3
S11301200601060106010601FE000601F200E600D2
S113013011241FBECFEFD8E0DEBFCDBF0E94C800A0
S11301400C9444010C9400008AB1807F8AB98FE03A
S11301508BB98AB1806F8AB908958AB18F708AB9D0
S113016080EF8BB98AB18F608AB9089500C000C04E
S1130170000089B1807F803FE1F3089589B18F70D9
S11301808F30E1F789B18F7088B9089589B10895E6
S1130190E1ECF0E08081877F808380818F7E8083A3
S11301A00E940901482F50E0FA01EB57F109E436A7
S11301B0F10560F5EC5CFF4F0C943E0181E00E9478
S11301C03C01EECF82E00E943C01EACF83E00E9432
S11301D03C01E6CF84E00E943C01E2CF85E00E942E
S11301E03C01DECF86E00E943C01DACF87E00E942A
S11301F03C01D6CF88E00E943C01D2CF89E00E9426
S11302003C01CECF80E00E943C01CACF0E943C0159
S1130210C7CFCF93DF938FEF87B90E94AD000E94C1
S1130220B6002FEF87EE93E0215080409040E1F735
S113023000C000000E94C600D82F8FE39CE90197FC
S1130240F1F700C000000E94A4009AE19A95F1F72A
S113025000C00E94C600C82F0E94BE002FEF87EE88
S113026093E0215080409040E1F700C000008D2FC2
S11302708C0FDF91CF91089588B90895EE0FFF1F79
S10F02800590F491E02D0994F894FFCF50
S9030000FC
